:100000000C9409030C940E1D0C9426030C942603E7
:100010000C9426030C9426030C9426030C942603BC
:100020000C9426030C9426030C9426030C942603AC
:100030000C9426030C9426030C9426030C9426039C
:100040000C94C41C0C9426030C9426030C942603D5
:100050000C9426030C9426030C9426030C9426037C
:100060000C9426030C9426030000000000000000FE
:1000700000000000000080C0E0F0F8F83800000048
:100080000000000000000000000000000000000070
:100090000000000000000000000000000000000060
:1000A0000000000000000000000000000000000050
:1000B000000000C0E0F0F0F8F8F8F8F8F8F8F0F018
:1000C000F7F7FFFBF9F8F8F8F8F8F8F0700000001F
:1000D0000000000000000000000000000000000020
:1000E0000000000000000000000000000000C0E070
:1000F000E00000000000000000000000FFFFFFFF24
:10010000FFFFFFFFFFFFFFFFFFFFFFFFFFFFFFFFFF
:10011000FFFFFFFF83007CFEFFC7C7C70707FFFF86
:1001200000FFFFFF0787C7C7EFFEFE1800FFFFFFB6
:1001300007C7C7C7FFFE7C00FFFFFF007CFEFFC7AD
:10014000C7E7F7FFFFDF071F7FFFFFFFFFFFFFFF8F
:10015000FFFFFFFFFFFFFFFFFFFFFFFFFFFFFFFEB0
:10016000FC38010101010000010100070F0F00012F
:10017000010101000000000F0F0700010101010053
:100180000000010101000000010101010101010164
:100190000000000103070F1F1F1F1F1F0F0F0F0F6E
:1001A0000F0F1F1F1F1F1F0F07030000000000007D
:1001B000000000000000000000000000000000003F
:1001C000000000000000000000000000000000002F
:1001D0000000000000000000000008141C1C1C1C93
:1001E0001C1C366363220000FFFFF7E3E3F7FFFD0B
:1001F0000000007432524242424A4C2E000000007D
:10020000000402FF0204000000000000002040FF84
:1002100040200000000000002070A82020203F00A7
:1002200000000000FE8282828484FC000000000046
:1002300000000000005F00000007000700147F14AA
:100240007F14242A7F2A1223130864623649552218
:10025000500005030000001C2241000041221C0048
:1002600014083E081408083E080800503000000832
:1002700008080808006060000020100804023E51D1
:1002800049453E00427F4000426151494621414577
:100290004B311814127F1027454545393C4A4949CE
:1002A0003001710905033649494936064949291E75
:1002B00000363600000056360000081422410014B3
:1002C0001414141400412214080201510906324981
:1002D00079413E7E1111117E7F494949363E4141A7
:1002E00041227F4141221C7F494949417F09090937
:1002F000013E4149497A7F0808087F00417F41005B
:100300002040413F017F081422417F404040407F10
:10031000020C027F7F0408107F3E4141413E7F096D
:100320000909063E4151215E7F091929464649497E
:10033000493101017F01013F4040403F1F204020E3
:100340001F3F4038403F63140814630708700807D4
:100350006151494543007F414100020408102000DB
:1003600041417F000402010204404040404000013E
:1003700002040020545454787F484444383844449C
:100380004420384444487F3854545418087E0901A6
:10039000020C5252523E7F0804047800447D400013
:1003A0002040443D007F1028440000417F40007CF5
:1003B000041804787C0804047838444444387C14D5
:1003C000141408081414187C7C08040408485454B5
:1003D0005420043F4440203C4040207C1C204020CE
:1003E0001C3C4030403C44281028440C5050503CA9
:1003F0004464544C44000836410000007F00000073
:1004000041360800100808100800060909062000F7
:1004100020000FED0321534449534B4949204346E3
:1004200047004E6F20534420696E73657274656493
:1004300000464154313600464154333200547970FD
:10044000653A2000436F64653A2000534420426CB3
:100450006F636B204552524F52004D697373696E42
:1004600067204D425220202000436C7573746572E2
:10047000203C2033326B42004E6F74204641543191
:10048000362F3332202000426F6F742073656374FF
:100490006F722020200053442063616E277420690E
:1004A0006E6974200053442063616E277420696470
:1004B0006C6520004520522052204F2052004E6F84
:1004C000726D616C20534420636172640053444830
:1004D00043206361726420202020200020536F722B
:1004E00074696E672066696C6573202E2E2E20203D
:1004F0002000204E6F7468696E6720666F756E64A9
:100500002068657265212000204275696C64696EFF
:1005100067206C697374002053454C454354204E4A
:1005200049432020202020202020202000547261D8
:10053000636B3A20002053442053454C45435420DC
:1005400044454C4159202020202000204C43442089
:10055000434F4E545241535420202020202020202D
:10056000002056616C75653A200020526F746174EA
:100570006520646973706C61792020202020200040
:100580002053657420636F6E747261737420202031
:1005900020202020200020536574205344206465CF
:1005A0006C61792020202020202020002020202085
:1005B000202020202020202020202020202020203B
:1005C000200020534554555020202020202020205A
:1005D0002020202020202000204E494320202020C1
:1005E000202020202020202020202020200020202B
:1005F00076657273696F6E20352E35202832303261
:10060000322900202020202020534449534B205DD4
:100610005B0011241FBECFEFD8E0DEBFCDBF11E0DD
:10062000A0E0B1E0E8EDFEE302C005900D92A63037
:10063000B107D9F726E0A6E0B1E001C01D92A83FBE
:10064000B207E1F70E94721D0C946A1F0C9400001F
:1006500096E09A95F1F708950895359BFECFA894FA
:10066000089508953C983D9844984598882799277F
:10067000349B0895359B089581E0089581E00895A5
:10068000359BEBDF3C9AE4DF2AD0089581E00895A2
:100690003D9ADEDF3C98DCDF3D98DADF359BDDDF1D
:1006A0003C9AD6DF1CD0089581E008958F938F91F6
:1006B0008F93359BD2DF3C9ACBDF11D0882311F486
:1006C00004D0F5CF0F90089508953D9A3C9AC0DF6D
:1006D0003D98BEDF359BC1DF3C98BADF0895089492
:1006E000881F01C0880FB9F03D9A0000000000008B
:1006F00018F400003C9802C03C9A00C0A9DF3D9865
:10070000A894000000000000359BA7DF12F48827A2
:1007100012C09EDFE7CF3D9A000000003C9898DFB2
:10072000992788273D98A8940000359B96DF7AF397
:10073000349B81E08DDF000000003D9A089581E048
:10074000089571E03D9A3C9800000000000080DFB1
:100750003D987EDFA894000000000000359B7DDFFF
:10076000B2F0889434990894771F60F73D9A8030EE
:1007700011F03C9801C03C9A00000000000068DFC6
:100780003D98A89400000000359B67DF61DF000002
:1007900000003D9A872F9927089580E20895CF930E
:1007A000C82F88E70E94400380E00E946F038C2FCF
:1007B0000E946F03CF910C946503CF93C82F88E7F5
:1007C0000E94400380E40E946F038C2F0E946F03FD
:1007D000CF910C946503CF93C82F81E890E00E94DD
:1007E000CF038C2F90E00E94CF03C0930F01CF91D5
:1007F00008950F931F93CF93DF93C82F88E70E942C
:10080000400380E40E946F03C052DD0B25E02C9F63
:1008100080012D9F100D1124D0E0C0E0025D1D4F1E
:10082000F801EC0FFD1FE49180910C018111E0951E
:1008300080911101813059F180E091E020910D010A
:10084000213009F090E0E92B8E2B0E946F03219656
:10085000C530D10529F721E080910C01813009F0E4
:1008600020E0219580911101813099F080E091E0A4
:1008700030910D01313009F090E0922B892B0E94CC
:100880006F03DF91CF911F910F910C94650380E866
:10089000D4CF80E8ECCFCF93DF93EC018991811125
:1008A00003C0DF91CF9108950E94F903F7CF81E053
:1008B00090910C01911180E080930C01089581E0EA
:1008C00090911101911180E080931101089581E0D0
:1008D00090910D01911180E080930D010895CF93C7
:1008E000DF93C82F862F90E080559F4F0E94CF0343
:1008F000C695C695C69588E0C89FE0011124209151
:100900000E01CE0188709927820F911D0E94CF039E
:10091000CE0124E0959587952A95E1F74096DF91E1
:10092000CF910C94CF030F931F93CF93C0E06C2F04
:1009300080E00E946F0404E810E080E00E94DD0384
:1009400001501109D1F7CF5FC83089F7CF911F91BE
:100950000F910C94650381EA90E00E94CF0388EC2C
:1009600090E00E94CF030C9493040E9432038EEA1D
:1009700090E00E94CF0386EA90E00E94CF0385EDCD
:1009800090E00E94CF0380E890E00E94CF0388EAC5
:1009900090E00E94CF038FE390E00E94CF0383EDAD
:1009A00090E00E94CF0390E080E00E94CF0380E4BB
:1009B00090E00E94CF038DE890E00E94CF0384E195
:1009C00090E00E94CF0380E290E00E94CF0390E08D
:1009D00080E00E94CF0380EA90E00E94CF0388EC81
:1009E00090E00E94CF038AED90E00E94CF0382E165
:1009F00090E00E94CF0381E890E00E94CF038FEC4B
:100A000090E00E94CF0389ED90E00E94CF0381EF38
:100A100090E00E94CF038BED90E00E94CF0380E432
:100A200090E00E94CF0384EA90E00E94CF0386EA20
:100A300090E00E94CF038FEA90E00E94CF038FECFA
:100A400080930F018093100110920E0110920C01FF
:100A50001092110110920D010C94AB0480EA90E009
:100A60000E94CF0380EC90E00E94CF030C9493048B
:100A7000CF93DF93CDB7DEB72A970FB6F894DEBFDA
:100A80000FBECDBF4AE0BE016F5F7F4F0E94041FC3
:100A9000CE0101960E944B042A960FB6F894DEBF51
:100AA0000FBECDBFDF91CF910895CF93DF93CDB728
:100AB000DEB72A970FB6F894DEBF0FBECDBF2AE08F
:100AC000AE014F5F5F4F0E940F1FCE0101960E9443
:100AD0004B042A960FB6F894DEBF0FBECDBFDF9150
:100AE000CF910895CF93DF93EC01FE01849121967D
:100AF000811103C0DF91CF9108950E94F903F5CFD2
:100B0000EF92FF920F931F93CF93DF937C018CE0C2
:100B10008E9D80018F9D100D1124D0E0C0E0065203
:100B20001E4FE0E08FEFE816F10421F0F801EC0F22
:100B3000FD1FE49180910C018111E09580911101DC
:100B4000813059F180E091E020910D01213009F0D0
:100B500090E0E92B8E2B0E94DD032196CC30D1054D
:100B600001F721E080910C01813009F020E021950E
:100B700080911101813099F080E091E030910D0178
:100B8000313009F090E0922B892BDF91CF911F91AA
:100B90000F91FF90EF900C94DD0380E8D4CF80E8B4
:100BA000ECCFCF92DF92EF92FF920F931F93CF93F0
:100BB000F12CE12CC0E06C2F89E10E946F0410E061
:100BC00000E0C70188599F4F6C01F601E00FF11F4B
:100BD00084910E94DD030F5F1F4F0A341105A9F7AE
:100BE000CF5F9AE4E90EF11CC53029F7CF911F9130
:100BF0000F91FF90EF90DF90CF900895549A539A01
:100C0000559A509810921201089528E030E090E82B
:100C100040E258E068E2782F792341F05BB96BB984
:100C2000969521503109B9F71BB808951BB84BB9F7
:100C3000F7CFCF93DF931F92CDB7DEB788E08BB9A4
:100C4000198280E028E238E09981983021F40F90F1
:100C5000DF91CF9108952BB999B1880F9170892BAD
:100C60003BB999819F5F9983EFCF88E38BB988E186
:100C70008BB9089528E100002A95E9F70197D1F78B
:100C800008950895DF92EF92FF920F931F93CF93F1
:100C9000DF93082FC8E0D0E010E880E2F82E98E05B
:100CA000E92E28E2D22E802F8123B1F0EBB881E02B
:100CB00090E00E943A06DBB816952197A1F781E0F3
:100CC00090E00E943A061BB8DF91CF911F910F91DF
:100CD000FF90EF90DF9008951BB881E090E00E94B4
:100CE0003A06FBB8E9CF90911201911104C00E941D
:100CF000420680E008950E940506FBCFFF920F9305
:100D00001F93CF93DF931F92CDB7DEB788E08BB9E7
:100D100081E090E00E943A06198210E008E288E043
:100D2000F82E8981883041F4812F0F90DF91CF9187
:100D30001F910F91FF9008950BB981E090E00E9400
:100D40003A0689B1110F8170182BFBB881E090E051
:100D50000E943A0689818F5F8983E3CF80911201D7
:100D6000811102C00C947E060C94190688E38BB99D
:100D700081E090E00E943A0688E18BB981E090E042
:100D80000C943A0681E080931201089510921201AA
:100D900008950E94190687FDFCCF0895CF92DF9237
:100DA000EF92FF92CF93C82F809114016A017B01CB
:100DB00004C0CC0CDD1CEE1CFF1C8A95D2F78FEF13
:100DC0000E9405068C2F80640E9405068F2D0E94CC
:100DD00005068E2D0E9405068D2D0E9405068C2D80
:100DE0000E94050685E90E9405068FEF0E94050610
:100DF0000E94C90680931F0181508E3FC8F3CF9196
:100E0000FF90EF90DF90CF900895AB01BC0110925E
:100E10001D0181E10E94CE060E94190680932001E7
:100E20008E3FD1F70895CF92DF92EF92FF92CF934A
:100E3000DF93C82F6A017B0180911C01811113C0CF
:100E40008FEE8C0F823040F088EE8C0F823020F0D5
:100E500080EE8C0F823038F489E0CC0CDD1CEE1C67
:100E6000FF1C8A95D1F78FEF0E9473068C2F806448
:100E70000E9473068F2D0E9473068E2D0E947306AA
:100E80008D2D0E9473068C2D0E94730687E8C83052
:100E900009F085E90E947306F12C0E94AE06D82F56
:100EA0008F3FB9F0811118C0CA33B1F40E94AE0669
:100EB0001092140186FF1AC081E080931C0182E029
:100EC00080931E010E94AE060E94AE060E94AE06EE
:100ED00003C0FA94F110E1CF0E94AE068D2FDF918E
:100EE000CF91FF90EF90DF90CF90089510921C016A
:100EF00089E08093140181E0E3CFCF92DF92EF92FB
:100F0000FF92CF93DF93C0901601D0901701E0902D
:100F10001801F0901901C616D706E806F90609F47B
:100F200046C06B017C01C0921601D0921701E0927D
:100F30001801F09219015C988FEF0E9473068FEFF1
:100F40000E947306B701A60181E10E941307C82F12
:100F5000F12CE12C882371F08C2FDF91CF91FF9041
:100F6000EF90DF90CF90089581E0E81AF10811F436
:100F70005C9AF2CF0E94AE068E3FB1F7F12CE12CC5
:100F8000C0911A01D0911B01CE0DDF1D0E94AE064B
:100F900088838FEFE81AF80AE11482E0F80681F7F7
:100FA0000E94AE060E94AE060E94AE065C9AC1E0A8
:100FB000D3CFCF93DF93AB01BC0188E10E9413072D
:100FC000811121C05C988EEF0E947306D0E0C0E0D2
:100FD000E0911A01F0911B01EC0FFD1F80810E942E
:100FE00073062196C11582E0D80791F78FEF0E9412
:100FF00073068FEF0E9473060E94AE06982F9F71B2
:10100000953059F05C9ADF91CF9108959E012F5F42
:101010003F4F2196B9F3E90102C0D0E0C0E00E9441
:10102000AE06882399F35C9A8FEF0E9473065C9852
:101030000E94AE06882319F05C9A81E0E4CF9E01FD
:101040002F5F3F4F2196F1F2E901F2CFAB01BC01D6
:1010500080E10C941307CF92DF92EF92FF920F93EF
:101060001F93CF93DF931092130185E080931501B6
:101070000E94FE050E94C6064999A0C080E185B97C
:101080005C9A8FE097E2A0E0B0E080931601909325
:101090001701A0931801B0931901C4E60E94B60687
:1010A000C150E1F75C98CCE08FEF0E947306C1500D
:1010B000D9F700E018E040E050E0BA0180E00E947B
:1010C00013070150110979F415B85C9A81E08093F7
:1010D00013018C2FDF91CF911F910F91FF90EF9013
:1010E000DF90CF900895813031F7CCE08FEF0E94F0
:1010F0007306C150D9F7C1E0D2E04AEA51E060E09E
:1011000070E088E00E9413078A3A21F581E080931D
:101110001E01C12CD12CE12C80E4F82ECCE08FEF05
:101120000E947306C150D9F701E012E040E050E0A0
:10113000BA0187E30E941307B701A60189E20E9462
:1011400013070150110981F482E08093130115B84F
:101150005C9ABFCF8130D1F2219779F610921E01AF
:10116000C12CD12C7601DACF8111E0CF10921C0175
:1011700089E08093140180911E01813079F4C5E6E5
:10118000D0E08FEF0E94730640E050E0BA018AE39E
:101190000E941307219711F08111F3CF40E050E036
:1011A000BA018BE30E94130760E072E080E090E0F8
:1011B0000E94260815B85C9AC1E08BCFC0E089CFA9
:1011C00080E185B9089515B808950E9419064999D6
:1011D00002C08F3FD1F708954F925F926F927F9236
:1011E0008F929F92AF92BF92CF92DF92EF92FF9237
:1011F000CF9320912501263009F048C0CC24CA9411
:10120000DC2CE12CF12C21E004C0660F771F881F35
:10121000991F2A95D2F720912E0130912F0150E08D
:1012200040E00E94921E4B014090300150903101ED
:101230006090320170903301420E531E641E751E81
:10124000CAE0C301B2010E947D07882311F0C1509A
:10125000C1F760911A0170911B01680D791DFB01A6
:1012600060817181828193816C217D218E219F21FA
:10127000CF91FF90EF90DF90CF90BF90AF909F9075
:101280008F907F906F905F904F900895CC24CA9478
:10129000DC2CEC2C2FE0F22E22E0B6CF4F925F92A6
:1012A0006F927F928F929F92AF92BF92CF92DF9276
:1012B000EF92FF92CF9388EEC82E83E0D82EE12CD8
:1012C000F12CC701B6010E94EC086115710581057A
:1012D0009105F9F030EAC31636E8D30631E0E306AB
:1012E000F10489F460E070E0CB01CF91FF90EF90C2
:1012F000DF90CF90BF90AF909F908F907F906F9036
:101300005F904F9008952FEFC21AD20AE20AF20AB4
:10131000D8CF40EAC41646E8D40641E0E406F1041A
:1013200021F380912501863009F040C081E0A701BA
:10133000960104C0220F331F441F551F8A95D2F710
:10134000CA01B90120912E0130912F0150E040E0F7
:101350000E94921E2B018090300190903101A0904C
:101360003201B0903301820E931EA41EB51ECAE056
:10137000C501B4010E947D07882311F0C150C1F757
:1013800060911A0170911B01640D751D8FEF90E043
:10139000A0E0B0E0FB0180839183A283B383C50109
:1013A000B4010E94D907C701B6019FCF82E0BFCF29
:1013B0008F929F92AF92BF92CF92DF92EF92FF9265
:1013C0000F931F93CF93DF93EC0185E0CC0FDD1FCC
:1013D0008A95E1F78E01012F11270695209134019E
:1013E000622F70E0C8010E947E1E7B0160912A017D
:1013F00070912B0180912C0190912D01E114F10449
:1014000009F44AC030912501363071F480902601EC
:1014100090902701A0902801B09029018616970688
:10142000A806B90609F45BC08090210190902201C2
:10143000A0902301B0902401681979098A099B09B9
:1014400030E050E040E00E94921ECA01B9016E5F98
:101450007F4F8F4F9F4FD12CC12C0E94EC082FEF54
:10146000C21AD20ACE14DF04C1F79B01AC0122508C
:10147000310941095109A0913401B0E00E94C31E15
:101480008090210190902201A0902301B09024012E
:10149000680D791D8A1D9B1D409134014E9D900160
:1014A0004F9D300D1124021B130B600F711F811D06
:1014B000911D0E947D07D17080911A0190911B01AE
:1014C0008C0F9D1FDF91CF911F910F91FF90EF9097
:1014D000DF90CF90BF90AF909F908F90089590E055
:1014E00080E0F0CF0F931F93FC01892BA1F4809132
:1014F000260190912701A0912801B09129018093A4
:101500002A0190932B01A0932C01B0932D0181E02F
:101510001F910F9108959385892F807194FFF8CFC3
:10152000428D538D70E060E0809125018B3059F43D
:1015300084899589B0E0A0E0DC0199278827482BB1
:10154000592B6A2B7B2B411551056105710579F2E9
:101550009A01AB012250310941095109A09134018E
:10156000B0E00E94C31E0091210110912201209140
:10157000230130912401060F171F281F391F0093E4
:101580002A0110932B0120932C0130932D01BFCF02
:101590008F929F92AF92BF92CF92DF92EF92FF9283
:1015A0001F93CF93DF9360E070E0CB010E947D0733
:1015B000E0911A01F0911B0180818D7F893EA9F194
:1015C000DF01A250BE4F8D919C9185359A4A81F0E2
:1015D00086E08093130180E0DF91CF911F91FF900F
:1015E000EF90DF90CF90BF90AF909F908F90089535
:1015F000E254FE4F84818093250160857185828548
:1016000093850E947D07E0911A01F0911B01808172
:101610008D7F893E11F083E0DCCF809125018B30F6
:1016200021F0863011F084E0D4CFC0911A01D0911E
:101630001B014385548550932F0140932E0115853E
:101640001093340186859785C48CD58CE68CF78CF5
:10165000C80ED91EE11CF11CC0923001D09231019C
:10166000E0923201F092330180912501863009F039
:1016700054C0A689B789208930E02A9FB0012B9FEA
:10168000700D3A9F700D112446015701860E971E6A
:10169000A11CB11C8092210190922201A0922301F1
:1016A000B09224018630E1F12CA53DA54EA55FA5A1
:1016B0002250310941095109A12FB0E00E94C31EF7
:1016C000860E971EA81EB91E8092260190922701B1
:1016D000A0922801B0922901812F90E020E031E012
:1016E000320F8130910509F040C02093350180917F
:1016F000260190912701A0912801B09129018093A2
:101700002A0190932B01A0932C01B0932D0190E01E
:1017100080E00E94720A81E05FCFACA1BDA1ABCF97
:101720000E94B41EC60ED71EE81EF91EC0922601E6
:10173000D0922701E0922801F092290181899289B3
:1017400035E0880F991F3A95E1F7BA010E947E1E95
:10175000C60ED71EE11CF11CC0922101D0922201BD
:10176000E0922301F0922401B7CF96958795232F1D
:10177000B6CF0097C1F0FC012081222339F0253E2D
:1017800029F02E3231F421812E3229F090E080E0D0
:101790000AC02530D9F3FC0123852E31B9F32F304F
:1017A000A9F3283299F308950E94D8090C94B90B33
:1017B0000E94930462E085E20E946F0484EB94E04F
:1017C0000E94720564E086E10E946F0482E294E068
:1017D0000E9472054999FECF089514B817B81AB837
:1017E00015B818B81BB8249A2C9A399A3B9A419A82
:1017F00017BC14BC91E095BD22E025BF2093690081
:101800001092BD061092F6061092F5061092F4069C
:101810001092BC061092BB061092C3069093C906A4
:101820001092C80610923A011092420123E431E06E
:101830003093CB062093CA06882319F10E94B50481
:101840000E94930460E080E00E946F040E94D10532
:1018500066E08DE00E946F0483E096E00E947205CE
:1018600067E087E00E946F048EEE95E00E947205AB
:101870002FE988E99BE7215080409040E1F700C0C4
:10188000000008951F93CF93DF93182FD62FC42FF6
:1018900067E080E00E946F040E9467048CEA95E094
:1018A0000E94720567E080E00E946F04812F90E043
:1018B0000E94800567E08AE30E946F048D2F90E00C
:1018C0000E94800567E083E70E946F048C2F90E000
:1018D0000E948005DF91CF911F910C946704FC0159
:1018E000892B89F08081882379F0853E61F08F35DE
:1018F00051F080858E3439F48185893421F481E07A
:101900009285933409F080E00895FC01892B59F009
:101910008081882349F0853E31F08F3521F0838521
:1019200082958170089580E00895CF92DF92EF92C2
:10193000FF920F931F93CF93DF938FEF9FEF9093BF
:101940000101809300010E944E096B017C01C114CA
:10195000D104E104F104D9F190E080E00E94720A20
:1019600010E000E0C8010E94D809EC01892B49F180
:101970008881853E11F0811124C08B858F3009F15B
:10198000109301010093000166E174E0CE010E9412
:10199000CE1E81E08B87FD8AEC8ADB8ECA8E609139
:1019A0001601709117018091180190911901DF9132
:1019B000CF911F910F91FF90EF90DF90CF900C94FB
:1019C000D9070F5F1F4F003981E0180759F6DF91E3
:1019D000CF911F910F91FF90EF90DF90CF900895DE
:1019E000FF920F931F93CF93DF93D82FC62FF42E20
:1019F00080E1489FA0011124460F511D80913501BF
:101A0000FA0102C0F695E7958A95E2F7EE0FFF1FFF
:101A1000EE0FFF1FE453F94F80819181A281B381C2
:101A200020E12BB91BB8209134012150330B242322
:101A30003523409121015091220160912301709141
:101A40002401420F531F611D711D0297A109B109A5
:101A50002091350104C0880F991FAA1FBB1F2A952A
:101A6000D2F7480F591F6A1F7B1F88E10E94CE06DC
:101A70008FEF0E9405068EEF0E94050600EB10E036
:101A800098E088E29BB98BB901501109D9F71BB8CE
:101A900083E00E9405068CEF0E9405068FEF0E94EE
:101AA00005068FE30E9405068FEC0E94050683EF72
:101AB0000E9405068CEF0E9405068FEF0E94050626
:101AC0008FE30E9405068FEC0E94050683EF0E94BB
:101AD00005068CEF0E94050685ED0E9405068AEA40
:101AE0000E94050686E90E9405068FEF0E94050602
:101AF0008EEF0E9405068F2D86958A6A0E94050644
:101B00008F2D8A6A0E9405068C2F86958A6A0E940C
:101B100005068C2F8A6A0E9405068EEFC827CF25FE
:101B20008C2F86958A6A0E9405068C2F8A6A0E94ED
:101B300005068EED0E9405068AEA0E9405068BEED8
:101B40000E9405068FEF0E9405068FEF0E94050692
:101B50008FEF0E9405068FEF0E9405068FEF0E940F
:101B600005068EE591E0D89FA001D99F500D112464
:101B700030E268E078E2FA01E00FF11FED5BFE4F22
:101B8000E08188E090E020E8FE2FF22381F16BB93C
:101B90007BB926950197C1F70F5F1F4F0D3581E087
:101BA000180749F71BB880E790E038E028E23BB916
:101BB0002BB90197E1F71BB880E093E020E21BB856
:101BC0002BB90197E1F71BB88FEF0E9405068FEF45
:101BD0000E9405060E9419060E94E50880E18BB963
:101BE0001BB8DF91CF911F910F91FF9008951BB803
:101BF0003BB9CFCFCF92DF92EF92FF920F931F931B
:101C0000CF93DF9389B1C82FC27081FD30C006E346
:101C100011E0F80181918F3F99F18BE3C82E81E0AB
:101C2000D82E93E4E92E91E0F92EDFEFF8016191CF
:101C30008F016F3F29F0F60140818C2F0E94F00C3C
:101C4000F8013197D083F601D1936F01F701128229
:101C5000CF5FF2EAEF1AFEEFFF0AC43039F71092B5
:101C60003A0183E491E09093CB068093CA06DF911A
:101C7000CF911F910F91FF90EF90DF90CF9008953B
:101C800081E0EA33F80731F6F2CF8091BB069091FC
:101C9000BC0680399C4090F488E08BB98091BB06EB
:101CA0009091BC0628E238E0803140E1940738F09A
:101CB00080E99CE09093BC068093BB060895499907
:101CC000FDCF2BB93BB90196EFCF499961C09091F7
:101CD0003A01292F30E04EE551E0249FF001259F85
:101CE000F00D349FF00D1124ED5BFE4F82818D3A93
:101CF000B1F58091420181114CC08091BD06F9017E
:101D0000EA5CFE4F8083255C3E4F4091C8064695B5
:101D10004695F9014083282F2D7F2D3071F48E5F79
:101D20008F708093BD06933051F40E94450E0E943F
:101D3000FA0D81E08093C90612C08F5FF1CF9F5FDB
:101D400090933A014EE551E0949F9001959F300D9C
:101D500011242D5B3E4F3093CB062093CA06209171
:101D60003A018EE591E0289FF001299FF00D1124A2
:101D7000ED5BFE4F8281863959F48781880F8A7A1C
:101D800090859575892B80930A0181E080934201AB
:101D9000089580910A018093BD06109242018F3010
:101DA000B9F70E94450EC5CF43E451E024E090E02E
:101DB00080E0FA01E80FF91F108201968E3531E0BC
:101DC0009307B9F72150425A5E4F2111F0CF8FEFA0
:101DD00080933B018093360180933C0180933701CF
:101DE00080933D018093380180933E0180933901B7
:101DF0000895CF93C82F8FEF9FEF909301018093A9
:101E000000010E94C6065C98499B05C00E94D80B41
:101E100080E0CF91089583E491E090931B0180933B
:101E20001A010E942B08811143C00E94930462E0B2
:101E300085E20E946F0484EB94E00E94720564E0E6
:101E400086E10E946F0480911301813049F485EA94
:101E500094E00E9472051092F606499BFECFD8CFFF
:101E6000823019F486E994E0F4CF833019F487E8DE
:101E700094E0EFCF843019F488E794E0EACF85301E
:101E800019F489E694E0E5CF863019F48AE594E008
:101E9000E0CF873019F48BE494E0DBCF84E494E066
:101EA0000E9472058091130190E00E943805D3CF03
:101EB000CC23C1F00E94930462E080E00E946F0492
:101EC00080911E01823069F58DEC94E00E947205CC
:101ED0005C982FEB85E692E5215080409040E1F739
:101EE00000C000000E94C80A811146C00E949304ED
:101EF00062E085E20E946F0484EB94E00E94720528
:101F000064E086E10E946F0480911301813061F4E6
:101F100085EA94E00E9472051092F606499BFECF76
:101F200077CF8EEB94E0D2CF823019F486E994E03B
:101F3000F1CF833019F487E894E0ECCF843019F4C2
:101F400088E794E0E7CF853019F489E694E0E2CFA2
:101F5000863019F48AE594E0DDCF873019F48BE4FC
:101F600094E0D8CF84E494E00E947205809113013C
:101F700090E00E943805D0CF4091340120912E018D
:101F800030912F01429FC001439F900D1124811574
:101F90009047D0F485E0809313010E94930462E09F
:101FA00085E20E946F0484EB94E00E94720564E075
:101FB00086E10E946F0489E694E00E947205109207
:101FC000F606499BFECF24CFCC23C9F064E080E025
:101FD0000E946F048DE394E00E94720580912501B8
:101FE0008630A1F481E394E00E9472058FEB95E6C0
:101FF00022E5815090402040E1F700C000005C984D
:102000000E94D40E0E94C20681E003CF87E394E0D1
:10201000EBCF8F929F92AF92BF92CF92DF92EF92CF
:10202000FF920F931F93CF93DF936115710579F49E
:1020300090E080E0DF91CF911F910F91FF90EF90A2
:10204000DF90CF90BF90AF909F908F9008957B01CD
:10205000EC010E94930460E080E00E946F040E9403
:102060005F0488ED95E00E94720560E080E60E94C2
:102070006F0480912501863009F037C181E394E037
:102080000E9472050E945F0441E060E082E00E94CD
:10209000420C62E080E00E946F0481E090E00E94C8
:1020A000800567018701085F1F4FF60181916F016D
:1020B000803211F00E94F903C016D106B1F7D09317
:1020C0000701C0930601F701628D738D90E080E0F7
:1020D000209125012B3059F4C488D588F12CE12CAE
:1020E0007601DD24CC246C297D298E299F29611558
:1020F00071058105910509F49BCFECECF6E024EF26
:1021000036E011921192119211922E173F07C9F7E2
:102110006093CC067093CD068093CE069093CF0645
:1021200011E0663FFFEF7F0781059105A8F40E944B
:10213000EC08663FFFEF7F078105910558F424E026
:10214000129FF0011124E453F94F6083718382835D
:1021500093831F5F1A3029F780902A0190902B01FA
:10216000A0902C01B0902D0180910001909101016F
:10217000019609F48AC090E080E00E94720A8FEF15
:102180009FEFDC018093160190931701A093180133
:10219000B093190180910001909101010E94D40B2C
:1021A00040912501FC01228D338DC901B0E0A0E0F2
:1021B0004B3071F4C488D588F12CE12C7601DD24F4
:1021C000CC24C901B0E0A0E08C299D29AE29BF290B
:1021D0006C017D01F2E0CF1AD108E108F108A0916D
:1021E0003401B0E0A70196010E94C31E00912101B5
:1021F000109122012091230130912401600F711F61
:10220000821F931F0E947D07E0911A01F0911B012C
:102210008DEC92E0ABEAB1E080839183A283B3833B
:1022200045815681678170858185928584169506E2
:10223000A606B70619F48C179D0731F0438754871B
:1022400065877687908B878785829682A782B086FE
:10225000D287C18780911501848380911001818B81
:10226000A0913401B0E0A70196010E94C31EC09066
:102270002101D0902201E0902301F09024016C0D07
:102280007D1D8E1D9F1D0E94D90780922A0190926C
:102290002B01A0922C01B0922D011092BC0610923D
:1022A000BB061092F5061092C306C1E0C093C906A2
:1022B0001092C8061092BD0610923A011092420187
:1022C00083E491E09093CB068093CA065C9840E04B
:1022D00052E060E070E080E10E9413070E94D40E9B
:1022E000C093F60681E090E0A5CE87E394E0C8CEE7
:1022F000CF92DF92EF92FF920F931F93CF93DF93D2
:10230000C0902A01D0902B01E0902C01F0902D017B
:102310008091000190910101019609F477C090E04D
:1023200080E00E94720A8FEF9FEFDC01809316011C
:1023300090931701A0931801B093190180910001A7
:10234000909101010E94D40B20912501FC01628D26
:10235000738DCB01B0E0A0E02B3071F484899589B6
:10236000B0E0A0E0AC0133272227CB01B0E0A0E031
:10237000822B932BA42BB52B9C01AD01225031094C
:1023800041095109A0913401B0E00E94C31E00919F
:102390002101109122012091230130912401600F2D
:1023A000711F821F931F0E947D07E0911A01F09117
:1023B0001B018FEF9FEFDC018093160190931701B3
:1023C000A0931801B093190183859485A585B685DE
:1023D00080932A0190932B01A0932C01B0932D019F
:1023E000C785D089CE010E94D40B8C010E946F0C4E
:1023F000882361F0B801CE01DF91CF911F910F9139
:10240000FF90EF90DF90CF900C940910C0922A01BA
:10241000D0922B01E0922C01F0922D01DF91CF910F
:102420001F910F91FF90EF90DF90CF9008955E9AEB
:102430002D9A5F9A08957F928F929F92AF92BF924A
:10244000CF92DF92EF92FF920F931F93CF93DF9380
:102450008091000190910101019609F0A6C11FEA47
:102460000E94930460E080E00E946F040E945F0479
:102470008BE495E00E9472050E945F0445E064E0F1
:1024800083E00E94420C62E080E00E946F0481E6DB
:1024900095E00E947205812F90E00E943805712E10
:1024A000D12F01E00E941712D71581F062E080E081
:1024B0000E946F0481E695E00E9472058D2F90E0E6
:1024C0000E94380580E194E00E9472054999C9C1D3
:1024D00089B12091C20641E050E0222311F050E082
:1024E00040E093B161E070E0213011F070E060E015
:1024F000929596959770902790FB882480F8912C60
:10250000869E9001879E300D969E300D1124082ED8
:10251000000C990B809590958827990F881F992713
:10252000849FF001859FF00D949FF00D11242E2BB8
:102530003F2BCD2F232BA9F189B193B1929596957D
:102540009770902790FBAA24A0F8B12CA69E90012A
:10255000A79E300DB69E300D1124082E000C990B4D
:10256000809590958827990F881F9927849FF0015F
:10257000859FF00D949FF00D11242E2B3F2B232BC4
:10258000D9F68FEB9AE7E0E181509040E040E1F727
:1025900000C00000CFEFCD0FC09310018C2F0E9420
:1025A000EB0393B12091C20661E070E0222311F0A9
:1025B00070E060E089B141E050E0213011F050E07E
:1025C00040E0929596959770902790FBEE24E0F866
:1025D000F12CE69E9001E79E300DF69E300D112401
:1025E000082E000C990B809590958827990F881FCD
:1025F0009927849FF001859FF00D949FF00D112481
:102600002E2B3F2B232BA1F193B189B19295969557
:102610009770902790FBCC24C0F8D12CC69E9001D7
:10262000C79E300DD69E300D1124082E000C990B3C
:10263000809590958827990F881F9927849FF0018E
:10264000859FF00D949FF00D11242E2B3F2B232BF3
:10265000D9F6FFEB2AE780E1F15020408040E1F716
:1026600000C00000CF5FC09310018C2F0E94EB03CD
:102670007D2E4E99F4C04E9BFECF9FEBEAE7F0E132
:102680009150E040F040E1F700C000001C1709F451
:10269000E8C0C09310018C2F0E94EB035C988091DE
:1026A000000190910101019609F4DBC090E080E007
:1026B0000E94720A83E491E090931B0180931A01B7
:1026C0000E94D40E10921601109217011092180158
:1026D0001092190180910001909101010E94D40B88
:1026E00040912501FC01228D338DC901B0E0A0E0AD
:1026F0004B3071F484899589B0E0A0E07C01DD2441
:10270000CC24C901B0E0A0E08C299D29AE29BF29C5
:102710006C017D01F2E0CF1AD108E108F108A09127
:102720003401B0E0A70196010E94C31E009121016F
:10273000109122012091230130912401600F711F1B
:10274000821F931F0E947D07E0911A01F0911B01E7
:1027500080819181A281B3818D3C9240AB4AB1408E
:1027600009F07FC0C18BA0913401B0E0A7019601B0
:102770000E94C31E0091210110912201209123018A
:1027800030912401600F711F821F931FDF91CF9141
:102790001F910F91FF90EF90DF90CF90BF90AF907F
:1027A0009F908F907F900C94D90790E080E00E94DA
:1027B000720A83E491E090931B0180931A010E94B6
:1027C000D40E109216011092170110921801109257
:1027D000190180910001909101010E94D40B209178
:1027E0002501FC01628D738DCB01B0E0A0E02B30A0
:1027F00069F42489358950E040E0A9013327222774
:10280000B0E0A0E0822B932BA42BB52B9C01AD0153
:102810002250310941095109A0913401B0E00E94D0
:10282000C31E0091210110912201209123013091BA
:102830002401600F711F821F931F0E947D07E0918A
:102840001A01F0911B0180819181A281B3818D3C9D
:102850009240AB4AB14009F002CE118901CEDC2F83
:1028600021CEDF91CF911F910F91FF90EF90DF90DC
:10287000CF90BF90AF909F908F907F9008958F9250
:102880009F92AF92BF92CF92DF92EF92FF920F93FF
:102890001F93CF93DF930E94930460E080E00E9437
:1028A0006F040E945F0485E395E00E9472050E9418
:1028B0005F0445E064E083E00E94420C63E080E056
:1028C0000E946F0481E695E00E94720580911501D7
:1028D00090E00E94380590901501A92CBB24B39478
:1028E000CAE08C2E0E941712809115018A1599F06A
:1028F00063E080E00E946F0481E695E00E9472052B
:102900008091150190E00E9438058EE094E00E94CD
:102910007205A090150149996EC189B12091C20636
:1029200041E050E0222311F050E040E093B161E03B
:1029300070E0213011F070E060E09295969597700C
:102940009B259170C92F20E0D22FC69F9001C79F71
:10295000300DD69F300D1124082E000C990B809558
:1029600090958827990F881F9927849FF001859F4C
:10297000F00D949FF00D11242E2B3F2B232BA1F152
:1029800089B193B19295969597709B25092F017007
:1029900010E0069F9001079F300D169F300D112407
:1029A000082E000C990B809590958827990F881F09
:1029B0009927849FF001859FF00D949FF00D1124BD
:1029C0002E2B3F2B232BE1F68FEB9AE7E0E1815092
:1029D0009040E040E1F700C0000080911501815077
:1029E00009F403C18093150193B12091C20661E0FF
:1029F00070E0222311F070E060E089B141E050E026
:102A0000213011F050E040E09295969597709B250B
:102A100090FBEE24E0F8F12CE69E9001E79E300D4D
:102A2000F69E300D1124082E000C990B8095909580
:102A30008827990F881F9927849FF001859FF00DA3
:102A4000949FF00D11242E2B3F2B232BB1F193B12A
:102A500089B19295969597709B2590FBCC24C0F8F0
:102A6000D12CC69E9001C79E300DD69E300D1124EC
:102A7000082E000C990B809590958827990F881F38
:102A80009927849FF001859FF00D949FF00D1124EC
:102A90002E2B3F2B232BD9F6FFEB2AE780E1F150B9
:102AA00020408040E1F700C00000809115018F5F59
:102AB0008B3008F09DC0809315014E9913CF4E9B2B
:102AC000FECF9FEBEAE7F0E19150E040F040E1F704
:102AD00000C0000080911501891509F48CC0809117
:102AE000000190910101019609F485C090E080E019
:102AF0000E94720A83E491E090931B0180931A0173
:102B00000E94D40E10921601109217011092180113
:102B10001092190180910001909101010E94D40B43
:102B200040912501FC01228D338DC901B0E0A0E068
:102B30004B3071F484899589B0E0A0E07C01DD24FC
:102B4000CC24C901B0E0A0E08C299D29AE29BF2981
:102B50006C017D01F2E0CF1AD108E108F108A091E3
:102B60003401B0E0A70196010E94C31E009121012B
:102B7000109122012091230130912401600F711FD7
:102B8000821F931F0E947D07E0911A01F0911B01A3
:102B900080819181A281B3818D3C9240AB4AB1404A
:102BA00051F5809115018483A0913401B0E0A70113
:102BB00096010E94C31E00912101109122012091D3
:102BC000230130912401600F711F821F931FDF9139
:102BD000CF911F910F91FF90EF90DF90CF90BF901A
:102BE000AF909F908F900C94D90780921501FCCEE6
:102BF000B092150162CFDF91CF911F910F91FF909D
:102C0000EF90DF90CF90BF90AF909F908F900895FE
:102C1000AF92BF92CF92DF92EF92FF920F931F93EA
:102C2000CF93DF930E94930460E080E00E946F04E2
:102C30000E945F0482EC95E00E9472050E945F048E
:102C400045E064E083E00E94420C62E080E00E9484
:102C50006F040E94570486E995E00E9472050E9465
:102C6000570463E080E00E946F0480E895E00E94D2
:102C70007205C1E0D1E00E94171289B12091C2060D
:102C800041E050E0222311F050E040E093B161E0D8
:102C900070E0213011F070E060E0929596959770A9
:102CA0009D2790FBAA24A0F8B12CA69E9001A79E78
:102CB000300DB69E300D1124082E000C990B809516
:102CC00090958827990F881F9927849FF001859FE9
:102CD000F00D949FF00D11242E2B3F2B232B09F484
:102CE00044C089B193B19295969597709D27092F0D
:102CF000017010E0069F9001079F300D169F300D68
:102D00001124082E000C990B809590958827990F17
:102D1000881F9927849FF001859FF00D949FF00DE7
:102D200011242E2B3F2B232BE1F62FEB8AE790E18A
:102D3000215080409040E1F700C00000C230A9F06F
:102D400062E080E00E946F0486E995E00E947205CF
:102D50000E94570463E080E00E946F0480E895E0E1
:102D60000E9472050E945704C2E093B12091C206EE
:102D700061E070E0222311F070E060E089B141E091
:102D800050E0213011F050E040E092959695977018
:102D90009D2790FBEE24E0F8F12CE69E9001E79E43
:102DA000300DF69E300D1124082E000C990B8095E5
:102DB00090958827990F881F9927849FF001859FF8
:102DC000F00D949FF00D11242E2B3F2B232B09F493
:102DD00045C093B189B19295969597709D2790FBC8
:102DE000CC24C0F8D12CC69E9001C79E300DD69E33
:102DF000300D1124082E000C990B80959095882792
:102E0000990F881F9927849FF001859FF00D949F4B
:102E1000F00D11242E2B3F2B232BD9F62FEB8AE715
:102E200090E1215080409040E1F700C00000C130A7
:102E3000A9F00E94570462E080E00E946F0486E9D6
:102E400095E00E9472050E94570463E080E00E94B2
:102E50006F0480E895E00E947205C1E04E990BCFA7
:102E60004E9BFECF2FEB8AE790E1215080409040AF
:102E7000E1F700C00000C13061F4DF91CF911F91F4
:102E80000F91FF90EF90DF90CF90BF90AF900C9498
:102E90003F14DF91CF911F910F91FF90EF90DF9042
:102EA000CF90BF90AF900C941B122F923F924F92F5
:102EB0005F926F927F928F929F92AF92BF92CF92CA
:102EC000DF92EF92FF920F931F93CF93DF93CDB7D3
:102ED000DEB728970FB6F894DEBF0FBECDBF1092B5
:102EE00009011092080183E491E090931B01809303
:102EF0001A018FEF93E09093C7068093C6068FEF79
:102F00009FEFDC018093160190931701A0931801A5
:102F1000B09319010E94D40E0E945F0460E080E02B
:102F20000E946F0487E195E00E9472050E945F0491
:102F300045E064E083E00E94420C11E0612F80E0F4
:102F40000E946F048CEA95E00E9472051F5F1630A4
:102F5000A9F763E080E00E946F0488E095E00E949A
:102F6000720510E000E0C8010E94D40B7C010097BC
:102F700021F0DC018C91882359F1C7010E946F0C6C
:102F8000811105C0C7010E94850C8823A1F0E09142
:102F9000C606F091C7068091080190910901E80FDB
:102FA000F91F008380910801909109010196909387
:102FB0000901809308010F5F1F4F809108019091D4
:102FC0000901883C910524F40039B1E01B0759F64A
:102FD000809108019091090163E0892B01F580E05F
:102FE0000E946F0482EF94E00E94720528960FB64B
:102FF000F894DEBF0FBECDBFDF91CF911F910F912F
:10300000FF90EF90DF90CF90BF90AF909F908F9008
:103010007F906F905F904F903F902F90089580E049
:103020000E946F048CED94E00E947205809108016B
:1030300090910901F12CE12C02970CF068C12091CC
:103040000801309109014091060150910701E0917A
:10305000C606F091C70610E000E090E080E082171D
:1030600093070CF460C1AA24AA94BA2CEE24E3942A
:103070000E94171289B1282F2270F22E81FDB6CF3F
:1030800089B12091C20641E050E0222311F050E0C6
:1030900040E093B161E070E0213011F070E060E059
:1030A0009295969597709E2590FB222420F8312CBE
:1030B000269E9001279E300D369E300D1124082E3D
:1030C000000C990B809590958827990F881F992758
:1030D000849FF001859FF00D949FF00D11242E2BFD
:1030E0003F2B232BC9F189B193B192959695977097
:1030F0009E2590FB442440F8512C469E9001479E0B
:10310000300D569E300D1124082E000C990B809521
:1031100090958827990F881F9927849FF001859F94
:10312000F00D949FF00D11242E2B3F2B232BD9F65D
:103130008FEB9AE7A0E181509040A040E1F700C0FA
:1031400000000F5F1F4F80910801909109018017C7
:10315000910711F410E000E093B12091C20661E004
:1031600070E0222311F070E060E089B141E050E0AE
:10317000213011F050E040E09295969597709E2591
:1031800090FB662460F8712C669E9001679E300D5E
:10319000769E300D1124082E000C990B8095909589
:1031A0008827990F881F9927849FF001859FF00D2C
:1031B000949FF00D11242E2B3F2B232BC1F193B1A3
:1031C00089B19295969597709E2590FBCC24C0F876
:1031D000D12CC69E9001C79E300DD69E300D112475
:1031E000082E000C990B809590958827990F881FC1
:1031F0009927849FF001859FF00D949FF00D112475
:103200002E2B3F2B232BD9F6BFEBEAE7F0E1B15091
:10321000E040F040E1F700C000000150110917FF45
:1032200006C00091080110910901015011094E9941
:103230008EC04E9BFECF2FEB8AE790E1215080405D
:103240009040E1F700C00000E091C606F091C7068B
:10325000E00FF11F808190E00E94D40B7C010E945E
:10326000850C882309F466C0C7010E94720A0E9477
:103270005517BCCE200F311FF901808190E00E94CC
:10328000D40B48E050E0BC01CE0101960E94F01E34
:103290005801F1E0AF1AB108E091C606F091C706F7
:1032A000EA0DFB1D808190E00E94D40B48E050E0C5
:1032B000BC01CE0101960E94E31E97FF15C08091CC
:1032C000C6069091C706FC01E00FF11F20818A0D10
:1032D0009B1DDC018C9180838091C6069091C7066E
:1032E000A80EB91EF50120830F5F1F4F2091C6065F
:1032F0003091C70680910801909109018E199F09AC
:10330000081719070CF4B6CFFFEFEF1AFF0A8091E8
:103310000801909109010197E816F9060CF08FCE8B
:1033200001E010E0E3CF61916417150609F48C0108
:10333000019695CE8091C6069091C706080F191F79
:10334000D8018C91B70190E00E9409104FCE0A1568
:103350001B0569F1E091C606F091C706E00FF11F69
:10336000808190E00E94D40B4C0163E080E00E94D9
:103370006F04C4010E94850C8823D9F086E090E098
:103380000E9480055401B8E08B0E911CF5018191DB
:103390005F01803219F00E94F903F3948A149B04B0
:1033A000A9F7AF2CB12C20E1A216B1042CF05801E2
:1033B0005FCE81E090E0E4CF80E20E94F903FFEF6E
:1033C000AF1ABF0AF0CFCF92DF92EF92FF920F9326
:1033D0001F93CF93DF9383E491E090931B0180933D
:1033E0001A018FEF9FEFDC01809316019093170174
:1033F000A0931801B093190190E080E00E94720A36
:103400008FEF9FEF9093010180930001CFEFDFEFEB
:1034100010E000E0C8010E94D40B7C01009709F481
:10342000A4C0FC018081882309F478C0C7010E94F0
:103430006F0C882321F0CF3FDC0709F4E8014BE053
:1034400050E066E174E0C7010E94D51E892B09F0A7
:103450008CC01093010100930001F701428D538D40
:1034600070E060E0809125018B3059F48489958962
:10347000B0E0A0E0DC0199278827482B592B6A2B64
:103480007B2B9A01AB012250310941095109A091CE
:103490003401B0E00E94C31EC0902101D0902201EF
:1034A000E0902301F09024016C0D7D1D8E1D9F1D69
:1034B0000E947D07E0901A01F0901B01F7018081C6
:1034C0009181A281B3818D3C9240AB4AB14009F019
:1034D00045C0F70184818093150181898093100193
:1034E0000E94EB035C98F70185819681A781B085E6
:1034F00080932A0190932B01A0932C01B0932D016E
:10350000D184F2848D2D9F2D0E94D40B009711F150
:103510000E946F0C8823F1F0CD2DDF2DCF3FDC070B
:1035200061F5F8940E94551749990BC08091F606F1
:10353000882331F080916E00816080936E00E89A5C
:103540007894DF91CF911F910F91FF90EF90DF90D2
:10355000CF90089590E080E00E94720A90E080E0B1
:103560000E94720ACF3FDC0741F40F5F1F4F003902
:1035700021E0120709F04ECFD1CFCE010E94D40B2B
:10358000BC01CE01DF91CF911F910F91FF90EF9081
:10359000DF90CF900C9409104F925F926F927F92C0
:1035A0008F929F92AF92BF92CF92DF92EF92FF9253
:1035B0000F931F93CF93DF930E941712499B22C052
:1035C0008FEF90E0499B9BC00197E1F780916E00DF
:1035D0008E7F80936E00E8981092F6061092C906CE
:1035E000DF91CF911F910F91FF90EF90DF90CF90DF
:1035F000BF90AF909F908F907F906F905F904F9013
:103600000C94D80B86B1A82FA17080FF98C14E9B57
:103610005AC089B16091C20641E050E0662311F0C2
:1036200050E040E093B121E030E0613011F030E053
:1036300020E0929596959770B1E09B2790FBAA2485
:10364000A0F8B12CA29EB001A39E700DB29E700D89
:103650001124082E000C990B809590958827990FBE
:10366000881F9927849FF001859FF00D949FF00D8E
:1036700011246E2B7F2B672B31F593B189B1929575
:1036800096959770B927B0FBCC24C0F8D12CC49E76
:10369000B001C59E700DD49E700D1124082E000C33
:1036A000990B809590958827990F881F9927829F5D
:1036B000A001839F500D929F500D1124642B752BF8
:1036C000672B09F43CC14E992BC084E690E04E99DB
:1036D000A0E00197E1F7AA2391F04E9BFECFF8946A
:1036E0000E94551749990BC08091F606882331F046
:1036F00080916E00816080936E00E89A7894DF91EB
:10370000CF911F910F91FF90EF90DF90CF90BF90DE
:10371000AF909F908F907F906F905F904F900895A3
:1037200049B16091C20621E030E0662311F030E03B
:1037300020E053B181E090E0613011F090E080E052
:10374000529556955770B1E05B2750FBEE24E0F898
:10375000F12CE89EB001E99E700DF89E700D1124C9
:10376000042E000C550B409550954427550F441FCF
:103770005527429FF001439FF00D529FF00D1124F9
:103780006E2B7F2B672B09F45BC064E670E049B1B8
:1037900053B15295569557705B27052F017010E075
:1037A000089FF001099FF00D189FF00D1124042EC1
:1037B000000C550B409550954427550F441F552735
:1037C000429F7001439FF00C529FF00C1124EE2990
:1037D000FF29EF2B09F4A0E061507109C1F6AA237B
:1037E00009F48DCFA1E049B153B152955695577068
:1037F0005A275170C52F50E0D52FC89FB001C99FDF
:10380000700DD89F700D1124042E000C550B40959F
:1038100050954427550F441F5527429FF001439F61
:10382000F00D529FF00D11246E2B7F2B672BD9F6D4
:10383000F8940E940816499962CF0E94E31954CF68
:1038400053B149B15295569557705B2750FB882468
:1038500080F8912C829EB001839E700D929E700D17
:103860001124042E000C550B409550954427550FFC
:10387000441F5527489FF001499FF00D589FF00DB8
:1038800011246E2B7F2B672B09F439CF64E670E08F
:10389000B1E053B149B15295569557705B2750FB33
:1038A000662460F8712C629EF001639EF00D729E9A
:1038B000F00D1124042E000C550B40955095442713
:1038C000550F441F5527489FE001499FD00D589F31
:1038D000D00D1124EC2BFD2BEF2B09F4A0E061504F
:1038E0007109B9F6AA2309F40ACFA1E053B149B18D
:1038F0005295569557705A2750FB442440F8512C46
:10390000429EB001439E700D529E700D1124042EF4
:10391000000C550B409550954427550F441F5527D3
:10392000489FF001499FF00D589FF00D11246E2B18
:103930007F2B672BD9F6F8940E947811D3CE809113
:10394000F6068111DCCE8FEF90E04999D8CE019731
:10395000E1F7F89481E00E94F90E882309F4C4CEBF
:103960006CCF00000000000000000000000000001C
:1039700000000000089500000000000000002091F9
:1039800015012A95F1F70895AF93AFB7AF93BF93A1
:103990002F93A091F5062091F406A22BA8B9A4EBD1
:1039A000A6BD20E0E8DFA091F406A8B9B091C90651
:1039B000BB2341F02093F5062F91BF91AF91AFBF8C
:1039C000AF911895A8E2ABB9A9B1A170AA0F2A2F9F
:1039D000A8E0ABB9A091BB06B091BC061196A0932C
:1039E000BB06B093BC06A03989F4BC3079F4A1E0E1
:1039F000A093C906CF93C0E7A8E0B8E2BBB9B8E08E
:103A0000BBB9AA95D1F7CA95B9F7CF912093F5061E
:103A10002F91BF91AF91AFBFAF9118952F932FB753
:103A20002F9330995BC03F933091C30626B1247029
:103A30002327E1F326B124702093C30628E02A95BA
:103A4000F1F700004F935F936F937F938F93EF9302
:103A5000FF9360E0E091CA06F091CB063DE541E0BE
:103A60000DC05091C30676B174707527E1F376B13D
:103A700074707093C3067EE07A95F1F727E081E0D9
:103A800079B17470D9F4000000007BE17A95F1F708
:103A900076B174705091C3067093C30675277695FE
:103AA0007695880F872B2A9559F7853D09F461E0B3
:103AB0006030B9F281933150404099F69F93AF93B3
:103AC000BF930E94650EBF91AF919F91FF91EF91BF
:103AD0008F917F916F915F914F913F912F912FBF68
:103AE0002F91189581E00E94ED0B8FEF80933F019D
:103AF000CBE80E94CC1A86B1D82FD17080FF03C0CA
:103B00000E94E308F6CF0E94E00883B18F70909185
:103B10000B01891741F180930B01883009F4E3C050
:103B2000843009F4E2C0823009F4E1C08130D9F474
:103B30008091C806D80FED2FE695E370F0E0EE5EB9
:103B4000FB4FE491D0FFD5C0EF70E3FDE86FE80FC5
:103B5000E53C08F0D0C0E093C8068091C8068C38D8
:103B600010F0C093C8068091F606882309F4C1CFEF
:103B70008091C906882309F4BCCFF8948091BD06D2
:103B80008F5F8F708093BD062091C806269526957D
:103B90002093F70690E1299FA0011124840F952F0F
:103BA000911D9093C5068093C4063091350102C0E3
:103BB000969587953A95E2F790934101809340015D
:103BC000880F991F880F991FFC01E453F94F8081DA
:103BD0009181A281B3818093BE069093BF06A0938A
:103BE000C006B093C10680913F012817B9F0209319
:103BF0003F0164E08CE00E946F048DE295E00E943A
:103C000072058091F7068A3020F483E091E00E94EB
:103C10004B048091F70690E00E9438058091BD0624
:103C200090913601981306C020913B019091F706C0
:103C30002917F1F090913701891306C020913C01BA
:103C40009091F7062917A1F090913801891306C0C9
:103C500020913D019091F706291751F0909139017B
:103C6000891308C090913E018091F706981302C015
:103C70000E94FA0D6091BE067091BF068091C00649
:103C80009091C10662507109810991092091350115
:103C900004C0660F771F881F991F2A95D2F70091DD
:103CA0002101109122012091230130912401600F04
:103CB000711F821F931F209134012150330B4091BB
:103CC000C4065091C50624233523620F731F811D3E
:103CD000911D0E9405071092BC061092BB0610921F
:103CE000C906789406CFD2E023CFD4E021CFD6E026
:103CF0001FCFE29529CF1092C8062FCFAA1BBB1B5E
:103D000051E107C0AA1FBB1FA617B70710F0A61BDB
:103D1000B70B881F991F5A95A9F780959095BC01FC
:103D2000CD010895A1E21A2EAA1BBB1BFD010DC0F7
:103D3000AA1FBB1FEE1FFF1FA217B307E407F5075B
:103D400020F0A21BB30BE40BF50B661F771F881F37
:103D5000991F1A9469F760957095809590959B01CD
:103D6000AC01BD01CF010895A29FB001B39FC00176
:103D7000A39F700D811D1124911DB29F700D811D97
:103D80001124911D08950E94B41EA59F900DB49F0B
:103D9000900DA49F800D911D11240895FB01DC015D
:103DA00005900D920020E1F70895FB01DC014150E0
:103DB000504030F08D910590801919F40020B9F72A
:103DC000881B990B0895FB01DC0104C08D910190C3
:103DD000801921F441505040C8F7881B990B089571
:103DE000DC01FB014150504058F049F001900D9228
:103DF0000020C1F7E61BF70B3197CF0108951C9205
:103E000001900020E9F7F6CFBB274A3031F499231F
:103E100022F4BDE2909581959F4F0C94411FBB27E2
:103E20002A3051F4992342F4BDE290958095709523
:103E300061957F4F8F4F9F4F0C941F1FBB27FA0137
:103E4000A62F6217710581059105330B30FB66F0D3
:103E5000AA27660F771F881F991FAA1FA21710F0A5
:103E6000A21B63953850A9F7A05DAA3308F0A95D9D
:103E7000A19336F7B111B1931082CA010C945A1F65
:103E8000BB27FB015527AA27880F991FAA1FA41734
:103E900010F0A41B83955051B9F7A05DAA3308F028
:103EA000A95DA193009779F7B111B1931192CB015C
:103EB0000C945A1FDC01FC01672F71917723E1F705
:103EC000329704C07C916D9370836291AE17BF07E7
:083ED000C8F30895F894FFCF38
:063ED800FFFFFE200000C8
:00000001FF
